:020000040800F2
:10000000200800209D0100080D1F00087D19000830
:10001000091F000831160008553A000800000000CA
:10002000000000000000000000000000E12B0008BC
:10003000C5180008000000000F1F00085538000810
:10004000B7010008B7010008B7010008B7010008B0
:10005000B7010008B7010008B7010008B7010008A0
:10006000B7010008B7010008B7010008B701000890
:10007000B7010008B7010008B7010008B701000880
:10008000B7010008B7010008B7010008B701000870
:10009000B7010008B7010008B7010008B701000860
:1000A000B7010008B7010008B7010008B701000850
:1000B000B7010008B7010008B7010008B701000840
:1000C000B7010008B7010008B7010008B701000830
:1000D000B70100085D3900081D3A0008393A0008E8
:1000E000B7010008B7010008B7010008B701000810
:1000F000B7010008B7010008B7010008B701000800
:10010000B7010008B7010008B7010008B7010008EF
:1001100041390008B7010008B7010008B70100081D
:10012000B7010008B7010008B7010008B7010008CF
:10013000B7010008B7010008B7010008B7010008BF
:1001400000000000000000000000000000000000AF
:10015000B7010008B7010008B7010008B70100089F
:10016000B7010008B7010008B7010008B70100088F
:10017000B7010008B7010008B7010008B70100087F
:10018000B7010008DFF810D000F074FF0048004706
:10019000FD4E0008AFF3008020080020064880478D
:1001A00006480047FEE7FEE7FEE7FEE7FEE7FEE75C
:1001B000FEE7FEE7FEE7FEE7B1380008850100082C
:1001C00040EA01039B0703D009E008C9121F08C0D9
:1001D000042AFAD203E011F8013B00F8013B521E59
:1001E000F9D27047D2B201E000F8012B491EFBD2D0
:1001F00070470022F6E710B513460A460446194632
:10020000FFF7F0FF204610BD10B5044604E00B7860
:1002100000F8013B03B1491C521EF8D2204610BD24
:10022000421C10F8011B0029FBD1801A704710B541
:10023000002200E0521C835C8C5CA34201D1002BA5
:10024000F8D1D8B2E1B2401A10BD00000FB400B529
:100250008DB010A909900B9000914FF0FF300A90DB
:1002600000200C9005480690054807906A4609A8AA
:100270000F9900F093FD0DB05DF814FBB90D000867
:10028000D70D00082DE9FF5F1D464FF0FF3BD5E974
:10029000014691465F464FF00008A9697F1C01980E
:1002A0008847296A824688470028F6D1BAF1FF3F7D
:1002B0000CD024F4C064002E19DD600614D5BAF108
:1002C0002B0F09D0BAF12D0F0ED103E0584604B020
:1002D000BDE8F09F44F48064A9697F1C01988847B9
:1002E000761E8246002E02DDBAF1300F03D0B9F13E
:1002F000000F26D032E0A969761E44F400747F1CFA
:10030000019888478246002E05DDBAF1780F06D0A5
:10031000BAF1580F03D0B9F1000F10D01EE0B9F1B7
:10032000000F02D0B9F1100F18D1A969761E24F47C
:1003300000747F1C019888478246102002E0082044
:1003400000E00A20814609E008FB0908A969761E39
:1003500044F400747F1C019888478246002E05DD16
:100360004946504600F006FD0028EDDAE96901989B
:100370008847A00502D46FF00100A8E7E00725D167
:10038000600613D5600502D5C8F1000000E04046C4
:1003900029680A1D2A600968220501D5087015E040
:1003A000220701D5088011E008600FE02868011DD0
:1003B00029600068210502D580F8008006E0210749
:1003C00002D5A0F8008001E0C0F8008038467EE742
:1003D0002DE9FF5FD2E901A74FF000089169994626
:1003E0001446DDF838B0464601988847054659EA74
:1003F0000B0005D009E0A169761C019888470546E5
:10040000216A284688470028F5D1681C03D05FEA96
:10041000CA7005D015E04FF0FF3004B0BDE8F09F82
:100420002068011D2160D0F800800AE05FEACA70F0
:1004300001D108F8015BA169761C7F1E01988847ED
:100440000546002F1ADD681C18D0B9F1000F0DD039
:10045000E81705EBD060421120F01F0059F8221078
:100460002A1A012090400142E0D107E0BBF1000FC1
:10047000DCD1216A284688470028D7D0E169019855
:100480008847BBF1000F07D1002E05DD5FEACA7077
:1004900002D1002188F80010A068B84203DDBBF14A
:1004A000000F03D017B16FF00100B6E73046B4E794
:1004B0002DE9FF4F087883B09946FF2805D0491CE5
:1004C0002D2804D00024002008E000200BE00124A7
:1004D000F9E700EB800003EB4000491C0B78FF2B91
:1004E000F7D104B1404200230293147819461D4607
:1004F0002D2C01D02B2C04D1521C2D2C13D00024D8
:100500000294AA461478FF2C0FD00A25A3FB057885
:1005100001FB05814FF0000C03FB0C11521CE31989
:100520004AEB0101EEE70124EAE7814453EA0100C6
:1005300002D019F5C87F06DA03980021C0E900113E
:1005400007B0BDE8F08F0025AE4E2F46DFF8B88229
:10055000184600F06BFDCDE90001B9F1000002DAA8
:10056000C9F1000400E004460023A74A1AEB030B7C
:1005700042EB045A12E0E00707D02A4633463846D9
:10058000414600F0F9F9074688462A4633461046A8
:10059000194600F0F1F905460E466410002CEAD128
:1005A000DDE90001B9F1000F5A46534606DA00F0C2
:1005B00055FA3A46434600F051FA05E000F0DCF9FE
:1005C0003A46434600F0D8F9029A0AB181F0004158
:1005D000039AC2E90001B3E72DE9FF4F1F468DB032
:1005E000D7E901464FF0FF382E2045464FF000096D
:1005F0000B90B9696D1C0E988847396A8246884706
:100600000028F6D1BAF1FF3F0AD024F4D064002EBE
:1006100011DDBAF12B0F08D0BAF12D0F0BD102E08A
:10062000404611B08DE744F48064B9696D1C0E98A2
:1006300088478246761E6946600501D52D2000E078
:100640002B208DF8000001F1010B0DF1200809E0CD
:10065000B9696D1C0E98884782460F9844F400745F
:10066000761E0560002E02DDBAF1300FF0D00B9936
:100670008A453ED144F0800406E00F99681CA9F138
:10068000010944F400740860B9696D1C761E0E9867
:10069000884782463028F0D02BE00B998A4505D157
:1006A000200603D444F08004761E18E0504603F080
:1006B00015FB08B30DF11301761E44F400748B454D
:1006C00008D2AAF130000BF8010B200607D5A9F1DA
:1006D000010003E0200602D409F101008146A005D3
:1006E00002D50F99681C0860B9696D1C0E9888477F
:1006F0008246002ED1DC53E0002E51DDBAF1650FA9
:1007000002D0BAF1450F4BD1A00549D5B9696D1C8E
:1007100024F44074761E0E9888478246002E0CDD25
:100720002B2804D0BAF12D0F07D144F48074B96995
:100730006D1C0E9888478246761EE00501D52D2156
:1007400000E02B2108F8011BCDF82C8021E00DF1F1
:100750002901761E44F4007488450CD2AAF13000B9
:1007600010F0FF0088F8000002D10B99884509D9E4
:1007700008F1010806E0E00501D5244801E042F255
:100780000F708146B9696D1C0E98884782460F9894
:100790000560002E04DD504603F0A0FA0028D6D1F3
:1007A000F9690E988847FF208BF8000088F8000050
:1007B0000020069007904B466A4608A906A8FFF756
:1007C00077FEA00502D46FF001002AE714F0240F91
:1007D0000AD0E00714D1DDE906123868031D3B603A
:1007E0000068C0E900120BE0DDE9060100F02EFA16
:1007F0000146E00704D13868021D3A6000680160D4
:1008000028460EE7000014400000F03FF1D8FFFF3B
:1008100070B5064603F062F9046805460A22002115
:10082000304600F037FB2C6070BD2DE9FE4F80464E
:1008300081EA0300C00F0C46009021F0004123F034
:100840000045B8EB0200A94105D24046214690463A
:100850001C460B46024623F00040104347D0270DAC
:10086000C7F30A00C3F30A510290401A01904028CE
:100870006BDAC3F3130040F4801B0098924620B15A
:100880000023D2EB030A63EB0B0B01985946C0F12E
:100890004002504600F03DFA06460D465046594685
:1008A000019A00F055FA10EB08006141002487EA34
:1008B000115284EAE7731A4340D0009A62B3019A56
:1008C000012A4FEA075215DC001B61EB02014FF0D1
:1008D000004202EA0752CDE90042001C41F58011B6
:1008E00032462B4600F054FB03B0BDE8F08F404683
:1008F0002146F9E7001B61EB0201001C41F5801362
:1009000000185B412018A2F5001747EB030140EAED
:10091000D570B6196D4111E06D084FEA360645EA0B
:10092000C0754FEA0752001B61EB0201001C41F544
:10093000801149084FEA30000019514132462B46D8
:1009400003B0BDE8F04F00F014BB00980122400056
:100950000023D0EB020263EBE073009821464FEADC
:10096000E074B8EB000061EB0401E9E783F00043B9
:100970005BE781F0004158E72DE9FE4F81EA03046F
:1009800004F0004421F0004100944FF0000B23F0EC
:10099000004350EA01045ED052EA03045BD0C3F383
:1009A0000A54C1F30A552C44A4F2F3340194A0FB79
:1009B0000254C1F3130141F48011C3F3130343F450
:1009C000801301FB024400FB034E840A970A44EAA9
:1009D000815447EA8357A4FB076802958D0A05FBFB
:1009E00007854FEA932C04FB0C542705029D4FEA20
:1009F000065847EA1637B5EB08056EEB070C870E6D
:100A0000920E47EA811742EA8312A7FB0201B6EB76
:100A10000B0164EB00042B0D43EA0C335E1844EB2E
:100A20001C50DA465146E7FB0201C5F313044FEAB6
:100A30000B3343EA14534FEA0432019C43EA0603A2
:100A4000A4F10C040294009CCDE900B400F0A0FADB
:100A500003B0BDE8F08F00200146F9E72DE9F04D25
:100A600081EA030404F0004B21F0004514464FF0E6
:100A7000000A23F0004150EA050220D054EA0102A6
:100A80001DD0C5F30A570246C5F31303C1F3130083
:100A9000C1F30A5640F4801543F48013A7EB06080F
:100AA000101BD64608F2FD3873EB050002D308F19F
:100AB000010801E092185B41B8F1000F03DA002051
:100AC0000146BDE8F08D00204FF4801106468446B3
:100AD0000EE0171B73EB050705D3121B63EB050331
:100AE00006434CEA010C49084FEA300092185B417A
:100AF00050EA0107EDD152EA030012D082EA040065
:100B000083EA0501084305D0101BAB4106D2012240
:100B1000002306E000224FF0004302E06FF00102E4
:100B200053101AEB06004CEB085110EB0A0041EB96
:100B30000B01BDE8F04D00F01CBA0EB540F2334198
:100B400002910021CDE900110A460B4600F020FA7F
:100B500003B000BD70B5C1F30A5201F00045002496
:100B6000C1F3130140F2FF3341F480119A4201DADC
:100B7000002070BD40F233439A42A2F2334203DCBC
:100B8000524200F0D5F800E090402C43F1D04042B2
:100B900070BDC1F30A5210B5C1F3130140F2FF3327
:100BA00041F480119A4201DA002010BD40F2334333
:100BB0009A42A2F2334203DC524200F0B9F810BD6F
:100BC000904010BD00F0004230F000400AD0C10D4E
:100BD00001F56071C0F3160042EA0151C2084007F6
:100BE00011437047002001467047000030B5041ED5
:100BF00071F1000404DB4FF00044404264EB01015A
:100C0000141E73F1000405DB1C464FF000435242F2
:100C100063EB04038B4208BF824230BD30B5041E33
:100C200071F1000404DB4FF00044404264EB010129
:100C3000141E73F1000405DB1C464FF000435242C2
:100C400063EB0403994208BF904230BD01F00043BA
:100C500030B421F0004150EA010206D00A0DA2F59D
:100C60006072C1F31301002A02DC30BC002070471F
:100C7000440F44EAC104C100E01830BC00EBC2508C
:100C800000F040B930B50B46014600202022012477
:100C900009E021FA02F59D4205D303FA02F5491B4A
:100CA00004FA02F52844151EA2F10102F1DC30BD60
:100CB0002DE9F05F0546002092469B468846064691
:100CC000814640241BE0284641464746224600F024
:100CD0002FF853465A46C01A914110D31146184670
:100CE000224600F016F82D1A67EB01084F462246FF
:100CF0000120002100F00DF817EB00094E41201EE5
:100D0000A4F10104DFDC484631462A464346BDE8EB
:100D1000F09F202A04DB203A00FA02F100207047FD
:100D20009140C2F1200320FA03F319439040704729
:100D3000202A04DB203A21FA02F00021704721FA30
:100D400002F3D040C2F12002914008431946704797
:100D5000202A06DBCB17203A41FA02F043EAE0737F
:100D600006E041FA02F3D040C2F12002914008436C
:100D7000194670473A2800D2303820F02002412A24
:100D800001D3A2F13700884201D34FF0FF30704702
:100D9000026811441378016018467047D160044915
:100DA00051610449116200211161114600F082B9BC
:100DB000910D0008A1100008426842B1016811F8C5
:100DC000013B23B1521EC0E90012184670470121B1
:100DD000C160881E704742685AB1C368016843B950
:100DE00083688B4205D0491E521CC0E900120020C6
:100DF00070474FF0FF3070470FB4002300B589B043
:100E00000CA900910B996FF00042CB601E4B06932A
:100E10001E4B07930423CDE901321D4A0892024676
:100E20006B460020FFF7D8FB09B05DF814FB70B5E6
:100E300086B006464FF0FF300091CDE90101002059
:100E400015460C4604903246694604A8FFF7D4FFC5
:100E500002460498211825B108B1084600E0204652
:100E60002860049800280DD0002A02DD00988842EE
:100E700008D0081B0094CDE901043246694604A855
:100E8000FFF7BAFF06B070BDB90D0008D70D000816
:100E9000A11000082DE9F04791460F468046044610
:100EA000002614F8015B2DB100F0F6F80068405DF3
:100EB000C007F6D12B2D02D02D2D18D0641E4A4626
:100EC0003946204600F08EFA27B13968A14201D197
:100ED000C7F8008071054FF002040BD5404200288E
:100EE00003DD02F0FBFD0460A007BDE8F08746F4D7
:100EF0008066E4E70028F8DA02F0F0FD04606FF0A5
:100F00000040F2E70029A8BF7047401C490008BF15
:100F100020F00100704710B4B0FA80FC00FA0CF029
:100F200050EA010404BF10BC704749B1CCF1200461
:100F300021FA04F411FA0CF118BF012121430843EE
:100F4000A3EB0C01CB1D4FEA00614FEA102042BF1A
:100F5000002010BC704700EBC35010440029A4BF10
:100F600010BC7047401C490008BF20F0010010BCB5
:100F7000704710B5141E73F1000408DA401C41F1EB
:100F8000000192185B411A4301D120F0010010BD0D
:100F90002DE9F04D92469B4611B1B1FA81F202E083
:100FA000B0FA80F220329046FFF7B3FE04460F46B7
:100FB00040EA0A0041EA0B0153465A46084313D05F
:100FC000114653EA010019D0C8F140025046FFF71C
:100FD000AFFE05460E46504659464246FFF799FE7B
:100FE000084305D0012004E020463946BDE8F08DD5
:100FF0000020054346EAE0762C4337430A98630510
:10100000E40AA0EB08000022FD0A44EA47540A3033
:1010100002D500200146E9E7010510196941DDE923
:10102000084500196941BDE8F04DA2E70EB540F250
:10103000334202920022CDE900221346FFF7A8FFB7
:1010400003B000BDC1F30A52C1F3130140F2FF33F4
:1010500041F480119A4202DA00200146704740F2C2
:1010600033439A42A2F2334202DC5242FFF760BE9F
:10107000FFF74FBE064C074D06E0E06840F0010365
:1010800094E8070098471034AC42F6D3FFF77EF897
:10109000586100087861000800487047145E000835
:1010A00010B50446FFF7F8FF0068005D00F001008E
:1010B00010BD00002DE9F34F8BB04FF0000801F197
:1010C0000C000C464FF0010B46460DF1080A01904A
:1010D0006269012101989047051E2DD0252D2CD045
:1010E000216A8847C0B16269012101989047216A4D
:1010F00088470028F7D1411E62690198904700E0B7
:10110000761CA1690B988847216A88470028F7D187
:10111000E1690B988847DBE7A1690B988847074688
:10112000A84201D1761CD3E7E1690B9888477F1C60
:1011300002D1B8F1000F6FD047E1002762693D4648
:101140003946019890472A2804D162690121019803
:1011500090470125DFF88892626901210198904744
:10116000A0F130010A290AD24F45E5DC07EB8701DF
:1011700000EB4107303FDFD445F01005ECE7E9060E
:1011800001D46FF000476C280AD04C2814D068288E
:1011900015D06A280DD074281CD07A281AD01DE0EA
:1011A00062690121019890476C2802D045F004053E
:1011B00014E045F002050DE045F020050AE0626903
:1011C000012101989047682802D045F0080505E004
:1011D00045F400656269012101989047C4E901570F
:1011E00065283DD019DC58287AD00CDC452837D04A
:1011F00004DC252826D0412831D131E046282FD0E3
:1012000047282CD12CE05B2877D0612828D0632890
:101210007CD0642823D15AE0D1E06F2848D008DC84
:1012200066281DD067281BD0692821D06E2816D1CA
:1012300027E0702845D0732868D0752847D07828D3
:101240000DD14DE0A1690B988847054625283FF44C
:1012500069AFE1690B9888476D1C3FF46AAFB4E051
:1012600023466A466FF001000B99FFF7B5F99FE03E
:1012700045F040006060A80723464FF0000236D4D6
:101280003EE0E8077FF447AF2068011D2160006859
:10129000290501D506701BE7290701D5068017E748
:1012A000A90703D5F117C0E9006111E706600FE750
:1012B00045F040006060A80723464FF0080216D4AE
:1012C0001EE040F60E0125EA0100606016E045F0E0
:1012D00040006060A80723464FF00A0207D40FE0E1
:1012E00045F040006060A80708D5234610226FF043
:1012F00001000B99AFF300805AE007E0234610226B
:101300006FF001000B99FEF7BDFF51E04FF00009AF
:101310004F464B46632802D05B2807D041E0207936
:10132000C00601D40120A06001273AE062690121D2
:10133000019890475E2805D14FF00109626949463E
:1013400001989047216939B900210A46534643F86C
:101350002120491C0829FADBB0B3216969B9C117FA
:1013600000EBD16253110AEB830122F01F02821AB3
:1013700001200B68904003430B60626901210198D2
:1013800090475D28E8D1B9F1000F09D000205146FF
:1013900051F82020D24341F82020401C0828F7DBD8
:1013A00002AB224600976FF001000B99FFF710F88F
:1013B00000280CDA401C08D1BBF1000F05D04FF01B
:1013C000FF300DB0BDE8F08FFFE74046F9E7E907D1
:1013D00001D108F1010806444FF0000B78E6000047
:1013E000CCCCCC0C2DE9F05F824600780027154666
:1013F0008B460AF10104B946302801D09DB113E0B3
:1014000014F8010B0127782803D0582801D045B1E2
:101410000AE00DB1102D07D10027102514F8010B9B
:1014200002E0082500E00A250026B0460EE005FB94
:10143000080005FB06F1012701EB10461FFA80F8B2
:10144000B6F5803F00D3B94614F8010B2946FFF7E3
:1014500091FC0028EBDABBF1000F05D00FB1641E40
:1014600000E05446CBF80040B9F1000F06D002F07E
:1014700035FB02210160C81EBDE8F09F48EA064026
:10148000FAE7000010B50446072301222146094867
:1014900003F007F80121074803F0EBF800BF022131
:1014A000044802F0F6FF0028F9D0024803F0C3F820
:1014B00010BD00000024014010B520484088E0BB6A
:1014C0001E48007A64280CDA0120FFF7DBFF1B4975
:1014D00049680844194948600846007A401C087267
:1014E0002BE0164840681549097AB0FBF1F000EE90
:1014F000100AB8EE400ADFED120A20EE200A0F486B
:1015000080ED030A90ED030AF6EE000A30EE600A61
:1015100080ED030A90ED030ADFED0A0A80EE201A3F
:10152000B0EE000A31EE000A80ED030A0020034904
:101530000872486040F2DC50488010BD1002002064
:101540003333533A0AD7233C30B593B00546402194
:1015500003A8FEF74EFE402103A8FEF74AFE03AAA9
:1015600021A12846FEF772FE23A103A8FEF75FFE25
:1015700098B900200190029001900290052229461E
:1015800001A8FEF741FE01A803F052FD1B4890F8A8
:1015900082101BA004F09AF823E00024402103A845
:1015A000FEF727FE03AA18A12846FEF74FFE03A860
:1015B000FFF72EF9044603A8FEF732FE68B1002CAF
:1015C0000BDD162C09DA0D4981F88240284603F01C
:1015D0002FFD13A003F02CFD02E013A003F028FD63
:1015E00000BF002013B030BD252A5B5E5F5D5F2524
:1015F0005B5E27275D0000003F0000001800002010
:101600005F25643E00000000252A5B5E5F5D5F256C
:101610005B303132333435363738395D0000000005
:101620005F4F4B3E000000003C45523E0000000072
:1016300000BFFEE72DE9F04F2DED028B87B0044689
:1016400000200490059006900390207A00287CDD0D
:101650004FF0FF37207A401E00040390002537E04A
:1016600000274FF48051039801FB05094FF0000A51
:1016700020E000200490059006900AEB8A0009EB18
:1016800040010A2204A803F0D1FE9DF813009DF842
:10169000121040EA0126002E08DD4FF6FF70864248
:1016A00004DA6088B04201D1781C47B20AF1010027
:1016B00000F0FF0ABAF1030FDBDB012F04DDCDF8E8
:1016C0000C90681C607208E04FF0FF37681C85B210
:1016D000464890F88400A842C2DC00BF002F7BDDA2
:1016E0009FED438A0026771E0DF1080800256BE068
:1016F00000200490059006900A21039801FB05093B
:101700000A22494604A803F091FE9DF814009DF8B2
:10171000151008409DF8161008409DF81710084055
:10172000FF284FD09DF8140088F800009DF81500A0
:1017300088F801009DF8160088F802009DF817004F
:1017400088F8030094ED010A00E048E0DDED020AAC
:10175000B4EEE00AF1EE10FA2AD89DF811009DF8D7
:10176000101040EA012B94ED010A70EE480AABEB31
:10177000060000EE100AB8EEC00A20EE800ADDED89
:10178000020A70EEC80A80EE201ABCEEC10A10EE02
:10179000100A80B2019001983044002802DCA4F8BD
:1017A00000B002E00198304420806581002710E0FD
:1017B0009DED020AB0EE408A9DF811009DF81010D0
:1017C00040EA0126681C85B20848B0F88600A842A5
:1017D0008EDA00BF03E0FFE700202080471E384676
:1017E00007B0BDEC028BBDE8F08F000018000020B0
:1017F0000000000010B516480078062825D2DFE862
:1018000000F003090E13191F4FF48041114803F033
:1018100044FA1AE04021104803F03FFA15E0102185
:101820000D4803F03AFA10E04FF400410A4803F083
:1018300034FA0AE04FF40051074803F02EFA04E0AE
:101840000221054803F029FA00BF00BF10BD0000C7
:101850000800002000100140000C014010B516489F
:101860000078062825D2DFE800F003090E13191FBF
:101870004FF40041114803F010FA1AE020211048FB
:1018800003F00BFA15E008210D4803F006FA10E00A
:101890004FF480410A4803F000FA0AE04FF4805107
:1018A000074803F0FAF904E00121054803F0F5F9CF
:1018B00000BF00BF10BD0000080000200010014064
:1018C000000C0140704700000A494FF47C0000F012
:1018D00085FB0020074981F888004FF47B0001F068
:1018E00080F905A003F0A4FB1E2003F035F902F0F7
:1018F000E1F80000180000203C52455345545F4F6A
:101900004B3E00002DE9FC4106460F464FF0000813
:1019100000200090019018480770B020ADF800003A
:101920000120ADF80200052E03DD7720ADF804009C
:1019300002E05520ADF8040000F043F8002414E064
:1019400003250EE01DF8140000F05FF800F018F811
:1019500030B1681E85B2002D03DC4FF0010800E0B5
:101960000025002DEEDC601C84B2032CE8DB00F0C7
:101970003AF84046BDE8FC810800002000BFFEE7C1
:1019800010B5002400F09EFF01F06AFEFFF732FF61
:10199000052003F0F0F801F02FFE052003F0EBF82E
:1019A00007E0641CB4F5FA5F03D9FFF723FF0120B9
:1019B00010BD03F063FB0028F3D1FFF71BFF0020ED
:1019C000F6E710B501F010F801F04AFE01F014FE40
:1019D000052003F0D0F8FFF741FF052003F0CBF816
:1019E000FFF708FF10BD10B500F0FEFFFFF736FF50
:1019F00001F002FE052003F0BEF801F031FE0520E3
:101A000003F0B9F801F0F8FD10BD70B5044600F020
:101A1000EBFFFFF7EFFE002518E004F0800010B1A7
:101A200001F01EFE01E0FFF719FF6006040E05201D
:101A300003F0A1F801F0E0FD052003F09CF8FFF7AA
:101A4000D9FE052003F097F8681CC5B2082DE4DB29
:101A500070BD00002DE9F84304460F464FF0000822
:101A60000020009017480770B0208DF80000022079
:101A70008DF8010020788DF802002088C0F3062040
:101A80008DF80300FFF79DFF002514E003260EE00C
:101A90001DF80500FFF7B9FFFFF772FF30B1701EA8
:101AA000C6B2002E03DC4FF0010800E00026002E35
:101AB000EEDC681CC5B2042DE8DBFFF794FF40465E
:101AC000BDE8F8830800002001460020162946D210
:101AD000DFE801F00B0C0F1215181B1E2124272A1A
:101AE0002D303335383A3C3F414338E04FF41660EF
:101AF00035E04FF4965032E04FF416502FE04FF49B
:101B000061502CE04FF4964029E04FF4164026E057
:101B10004DF6C02023E04FF4614020E04FF4E13067
:101B20001DE04FF4FA301AE04FF4613017E04FF443
:101B30007A3014E04FF4E12011E00A480FE04FF44E
:101B4000FA200CE008480AE0084808E04FF4612059
:101B500005E0074803E0074801E0074800BF00BF71
:101B60007047000020A10700C0270900B0710B00DA
:101B700040420F0060E3160080841E000EB5012174
:101B8000264802F053FF01212448401D02F04EFF79
:101B900001A803F086F803208DF80A0002200190C6
:101BA00001A91F4803F088F8022002F01FFE002060
:101BB00002F060FC684602F037FC01208DF800005E
:101BC00000208DF801008DF8020001208DF803003F
:101BD0006946144802F012FC0723012211461148FD
:101BE00002F05FFC012207210E4802F028FD0121CE
:101BF0000C4802F049FC0B4802F01DFC00BF0948EC
:101C000002F01FFC0028FAD1064802F023FC00BFB6
:101C1000044802F025FC0028FAD10EBD040018008B
:101C2000000801400024014030B52DED068B93B033
:101C300005460020129011900E900A900B900C9087
:101C40000D900EAA8AA12846FEF700FB0EA803F00D
:101C50000DF889A10EA8FEF7EAFA00287CD10FA999
:101C600010AA0CA80AABCDE90030CDE9022111ABD6
:101C700012AA82A12846FEF7E9FA129800286DDD23
:101C8000854890F883001299884267DB10980028F5
:101C900064DD814890F88400109988425EDB7E48BC
:101CA000B0F886000F99884258DB9DED0C1BB0EE12
:101CB000410AF0EE610A9FED791B53EC112B51ECB8
:101CC000100BFEF793FF49D81298C0B28DF824008C
:101CD000119880B2ADF81E009DED0A1BB0EE410ACE
:101CE000F0EE610A51EC100BFEF7B0FF08909DED8D
:101CF0000C1BB0EE410AF0EE610A9FED6A1B53EC3B
:101D0000112B51EC100BFEF737FE41EC190B9FED38
:101D1000630B53EC102BFEF7A1FE41EC180BFEF702
:101D200038FF80B2ADF81C001098C0B28DF82500C5
:101D30000F9880B2ADF826001298C1B207A8FFF73D
:101D400089FE5A4807A90EC90EC0284603F070F94B
:101D500057A003F06DF986E004E0FFE756A003F01A
:101D600067F980E056A10EA8FEF761FA002877D146
:101D70000FA810AB12AA53A100902846FEF766FAEE
:101D80001298002868DD444890F883001299884230
:101D900062DB109800285FDD3F4890F884001099BE
:101DA000884259DB3C48B0F886000F99884253DBE3
:101DB00000200790089009901298C0B28DF8240076
:101DC0001098C0B28DF825000F9880B2ADF82600AB
:101DD00007A800F09DF8002803DA0020079008907B
:101DE0000990BDF81C00FEF7A8FE41EC1A0B9FED10
:101DF0002B0B53EC102BFEF7BFFD41EC190B9FEDA5
:101E0000290B53EC102BFEF729FE41EC180BFEF7C3
:101E10001DFF04462046FEF7D5FE41EC180B9DED54
:101E2000080A10EE101A0846FEF7CCFE41EC190B1A
:101E3000BDF826009DF82510CDE904108DED028B2C
:101E40008DED009BBDF81E209DF8241000E007E0FA
:101E500021A003F03BFC06E017A003F0E9F802E044
:101E600015A003F0E5F8002013B0BDEC068B30BDE3
:101E7000252A73202573000077000000252A73208F
:101E8000252A7320256420256420256C6620256C76
:101E90006620256420256400180000200000000052
:101EA0000000244000000000C0FFDF40BC00002014
:101EB000204F4B3E000000003C45523E0000000019
:101EC00072000000252A7320252A7320256420250E
:101ED00064202564000000003C43503A25643B2008
:101EE000574C3A25643B2044423A25302E33663B1A
:101EF00020563A25302E33663B2057503A25643B16
:101F00002053513A25643E0000BFFEE770477047FA
:101F10002DE9FF4104460027002001900290039024
:101F20000026207A002853DD607A002850DD207AD0
:101F3000401E0604607A401E4FF4805111FB00667B
:101F4000608900EB800006EB400632460A2101A8BA
:101F5000FEF748F90A22314601A803F067FA9DF816
:101F600005009DF8041040EA012020802088B0F58B
:101F7000004F02DB00202080471E9DF807009DF8DF
:101F8000061040EA0120608060884FF6FF718842A9
:101F900002DB00206080471E6D469DF80800287017
:101FA0009DF8090068709DF80A00A8709DF80B0064
:101FB000E8709DED000AB5EEC00AF1EE10FA04DB00
:101FC0009DED000A84ED010A04E04FF0FF3701E0C7
:101FD0004FF0FF37384604B0BDE8F08170B50546D4
:101FE0000C4601222946204603F020FA012205F181
:101FF0000A0104F1830003F019FA012205F10B0133
:1020000004F1820003F012FA182104F18C00FEF7AB
:10201000F0F8182205F10C0104F18C0003F006FA27
:102020008021601CFEF7E5F8802205F12401601C88
:1020300003F0FCF9012205F1A50104F1840003F08D
:10204000F5F9022205F1A60104F1860003F0EEF98C
:10205000012205F1A80104F1810003F0E7F9012252
:1020600005F1A90104F1880003F0E0F9022205F16D
:10207000AA0104F18A0003F0D9F970BD2DE9F041FD
:102080002DED048B8CB00446182106A8FEF7B1F89C
:10209000182106A8FEF7ADF806AAF4A12046FEF71F
:1020A000D5F806A8FEF7BCF800287DD006A8FEF7F4
:1020B000AFFBC0B28DF814009DF81400002874DD49
:1020C0009DF81410EE4890F88300401E81426CDCAD
:1020D000182106A8FEF78DF806AAEAA12046FEF709
:1020E000B5F806A8FEF79CF800287DD006A802F0F7
:1020F000BDFDE9A106A8FEF79AF8002875D19DF864
:102100001400401E00EB4000E44901EB80004088D1
:10211000ADF80E00182106A8FEF76BF806AAE0A19C
:102120002046FEF793F806A8FEF77AF8002879D043
:1021300006A801F0D9FCB0EE408AF0EE608A9FED6F
:10214000DF0B53EC102B51EC180BFEF74FFD6AD848
:10215000BDF80E00002866DD9FEDDA0B53EC102B66
:1021600051EC180BFEF742FD62D251EC180BFEF752
:102170006DFD049003A8FFF75DFA002854D10026F6
:102180009DF8141003A8FFF765FC9DF81400401E8D
:1021900000EB4000C14901EB800003A90EC90EC04D
:1021A0000020ADF80C0001E057E152E19DF8140069
:1021B000401CC0B28DF814009FEDC40A8DED040AD6
:1021C0009DF8141003A8FFF745FC9DF81400401E6D
:1021D00000EB4000B14901EB800003A90EC90EC01D
:1021E0002046FEF71DF801E02FE1A1E0C7B200256F
:1021F00009E0605D5F2801D1701CC6B2032E00DBD0
:1022000003E0681CC5B2BD42F3DB00BF0021681CBF
:10221000C0B205462154204602F00AFFACA002F0ED
:1022200007FF80E080E07BE0AAA002F001FF7AE0F7
:102230009FEDAA0B53EC102B51EC180BFEF70EFC84
:1022400041EC190BFEF702FD049003A8FFF7F2F929
:10225000002861D19DF8141003A8FFF7FBFB51EC97
:10226000180BFEF7F3FC04909DF81400401E00EBE1
:1022700040008A4901EB800003A90EC90EC09FED02
:10228000970B53EC102B51EC180BFEF7E7FB41ECCE
:10229000190BFEF7DBFC04909DF81400401CC0B243
:1022A0008DF8140003A8FFF7C5F980BB00269DF840
:1022B000141003A8FFF7CEFB9DF81400401E00EB9E
:1022C0004000764901EB800003A90EC90EC02046EC
:1022D000FDF7A6FF00F0FF08002509E0675D5F2F0E
:1022E00001D1701CC6B2032E00DB03E0681CC5B22E
:1022F0004545F3DB00BF0021681CC0B205462154F0
:10230000204602F095FE72A002F092FE0BE0FFE77D
:1023100070A002F08DFE06E06EA002F089FE02E0E1
:102320006CA002F085FE9BE06AA002F081FE97E0BF
:102330006CA106A8FDF77BFF002848D1182106A84C
:10234000FDF757FF06AA56A12046FDF77FFF06A816
:10235000FEF75EFA80B2ADF80E0006A8FDF760FF4A
:1023600080B3BDF80E0000282DDDBDF80E004FF63D
:10237000FF71884227DA0027BDF80E109DF814007F
:10238000401E00EB4000454A02EB800041802046A1
:10239000FDF746FF00F0FF0800250CE0665D5F2EAC
:1023A00001D1781CC7B2304602F058FE032F00DB83
:1023B00003E0681CC5B24545F0DB00BF44A002F055
:1023C00037FE4DE0FFE743A002F032FE48E046A1B1
:1023D00006A8FDF72CFF78BB182106A8FDF709FF1A
:1023E00006AA2FA12046FDF731FF40A106A8FDF760
:1023F0001EFF10BB9DF81400401E00EB4000274A52
:1024000002EB800090ED010A10EE101A0846FEF76C
:10241000D9FB41EC180B8DED008B9DF81400401E8C
:1024200000EB40001D4B03EB800042889DF8141028
:102430002FA003F04BF913E003E026A002F0F8FD13
:102440000EE024A002F0F4FD0AE022A002F0F0FD6C
:1024500006E020A002F0ECFD02E01EA002F0E8FD84
:1024600000200CB0BDEC048BBDE8F081252A5B5E3A
:102470005F5D5F255B5E5F7C2720275D00000000BD
:1024800018000020252A5B5E5F5D5F252A5B5E5F8A
:102490005D5F255B5E5F5D0061747400C8000020B5
:1024A000252A5B5E5F5D5F252A5B5E5F5D5F252A97
:1024B0005B5E5F5D5F255B5E27275D00000000605F
:1024C00066065E40000000000000144000000000AE
:1024D0004F4B3E003C45523E000000000000000013
:1024E0000000004077000000610000003F00000095
:1024F0003C564F415F25645F253034645F25302EA4
:1025000032663E002DE9F04188B007461C2101A843
:10251000FDF76FFE1C2101A8FDF76BFE0026B046FB
:10252000002514E0BC5D5F2C01D0202C02D1681C7A
:10253000C5B207E0002D05DD4046411C01F0FF0853
:1025400001A90C54012D00DD03E0701CC6B2002C63
:10255000E8D100BF01A802F089FB29A101A8FDF77D
:1025600066FE48B927A002F063FD274802F060FD2F
:1025700026A002F05DFD3EE025A101A8FDF757FE73
:10258000002835D11C2101A8FDF733FE0026B046F6
:10259000002513E0BC5D5F2C01D0202C04D1022D5E
:1025A00002DA681CC5B207E0012D05DD4046411C7A
:1025B00001F0FF0801A90C54701CC6B2002CE9D12F
:1025C00001A8FDF72DFEC5B2002D0DDD182D0BDA8B
:1025D000182201A90C48FDF7F3FD384602F028FD4A
:1025E0000CA002F025FD06E00CA002F021FD02E0A7
:1025F0000AA002F01DFD002008B0BDE8F081000037
:102600003F0000003C000000A40000203E0000004D
:10261000770000005F4F4B3E000000003C45523EFB
:102620000000000030B5A5B005460024902101A8A7
:10263000FDF7DFFD902101A8FDF7DBFD01AA23A135
:102640002846FDF703FE01A802F010FB23A101A814
:10265000FDF7EDFD48B922A002F0EAFC214802F0A6
:10266000E7FC21A002F0E4FC2CE020A101A8FDF78A
:10267000DEFD20BB902101A8FDF7BBFD01AA1CA136
:102680002846FDF7E3FD01A8FDF7CAFD0446002C2E
:1026900011DD802C0FDA80211248FDF7AAFD2246B9
:1026A00001A91048FDF78CFD284602F0C1FC16A0D8
:1026B00002F0BEFC06E016A002F0BAFC02E014A094
:1026C00002F0B6FC002025B030BD0000252A5B5E7C
:1026D0005F5D5F255B5E5F5D000000003F00000006
:1026E0003C000000190000203E00000077000000C0
:1026F000252A5B5E5F5D5F252A5B5E5F5D5F255B14
:102700005E27275D000000005F4F4B3E0000000089
:102710003C45523E0000000010B58AB00446182126
:1027200004A8FDF766FD182104A8FDF762FD04AAC0
:102730002EA12046FDF78AFD04A802F097FA2DA1EC
:1027400004A8FDF774FD18B104A8FDF769FD58B998
:102750002948B0F8863090F8842090F88300411E14
:1027600026A002F0B3FF3DE02AA104A8FDF75FFD1B
:10277000002834D101A802AB03AA27A1009020466B
:10278000FDF764FD0398002825DD0398052822DC69
:10279000029800281FDD029810281CDC01980028F0
:1027A00019DD0198B0F5C87F15DC0398401C12496B
:1027B00081F88300029881F884000198A1F88600CE
:1027C0004FF47B0000F00DFA204602F031FC17A018
:1027D00002F02EFC02E017A002F02AFC02E015A095
:1027E00002F026FC00200AB010BD0000252A73204C
:1027F000257300003F000000180000203C43503AC1
:10280000256420574C3A2564204D504E3A25643EAD
:102810000000000077000000252A7320252A73207D
:10282000256420256420256400000000204F4B3ED5
:10283000000000003C45523E0000000038B5044650
:102840006A4619A12046FDF701FD009870B90020E5
:102850001749096808701649096881F883002046FD
:1028600002F0E6FB13A002F0E3FB1AE00098012857
:1028700011D10F49096808700D48006890F881006F
:102880000B49096881F88300204602F0D1FB09A0BA
:1028900002F0CEFB05E0204602F0CAFB07A002F0E2
:1028A000C7FB002038BD0000252A732025640000E6
:1028B0000000002020706173730D0A0020666169BA
:1028C0006C0D0A001CB54348007806287FD2DFE86B
:1028D00000F0031D3043576B4FF400400090002080
:1028E0008DF8060018208DF8050000208DF80400F2
:1028F00001208DF807006946374802F0DDF9A02075
:1029000036490870A1203649087060E02020009008
:1029100000208DF8060018208DF8050000208DF8A5
:10292000040001208DF8070069462E4802F0C4F922
:102930004DE00820009000208DF8060018208DF84A
:10294000050000208DF8040001208DF8070069467D
:10295000244802F0B1F93AE04FF4804000900020A2
:102960008DF8060018208DF8050000208DF8040071
:1029700001208DF8070069461A4802F09DF926E00B
:102980004FF48050009000208DF8060018208DF83C
:10299000050000208DF8040001208DF8070069462D
:1029A000104802F089F912E00120009000208DF813
:1029B000060018208DF8050000208DF80400012085
:1029C0008DF807006946074802F076F900BF00BF9E
:1029D0001CBD00000800002000100140090000207C
:1029E0000A000020000C01401CB54348007806286E
:1029F0007FD2DFE800F0031D3043576B4FF40040F7
:102A0000009010208DF8060018208DF80500002099
:102A10008DF8040001208DF807006946374802F060
:102A20004BF9A02036490870A1203649087060E0B3
:102A30002020009010208DF8060018208DF8050049
:102A400000208DF8040001208DF8070069462E480B
:102A500002F032F94DE00820009010208DF80600B9
:102A600018208DF8050000208DF8040001208DF855
:102A700007006946244802F01FF93AE04FF480400D
:102A8000009010208DF8060018208DF80500002019
:102A90008DF8040001208DF8070069461A4802F0FD
:102AA0000BF926E04FF48050009010208DF80600BE
:102AB00018208DF8050000208DF8040001208DF805
:102AC00007006946104802F0F7F812E00120009074
:102AD00010208DF8060018208DF8050000208DF8D4
:102AE000040001208DF807006946074802F0E4F869
:102AF00000BF00BF1CBD0000080000200010014006
:102B0000090000200A000020000C01401FB501212F
:102B1000304801F08BFF00208DF80C0028208DF844
:102B20000D0008208DF80E0001208DF80F002020E8
:102B3000029002A9284802F0BFF828208DF80D0065
:102B400000208DF80E004020029002A9224802F0D9
:102B5000B3F828208DF80D0008208DF80E00802095
:102B6000029002A91C4802F0A7F818208DF80D0069
:102B700010208DF80E00029002A9174802F09CF870
:102B80001021154802F08BF8012112480A3001F09B
:102B90004DFF684602F0DEFB00208DF800000120AA
:102BA0008DF8010003208DF8020000208DF803004D
:102BB0008DF8040001208DF805008DF806008DF8D1
:102BC00007006946054802F0C3FC0121034802F0F2
:102BD000CCFB1FBD0200180000080140003001407E
:102BE000704770B504460D462646304602F0EAFBB3
:102BF000264601223146284602F044FC0A360122CC
:102C0000314605F1830002F03DFC761C012231467D
:102C100005F1820002F036FC761C1822314605F1DF
:102C20008C0002F02FFC183680223146681C02F01E
:102C300029FC81360122314605F1840002F022FC94
:102C4000761C0222314605F1860002F01BFCB61C00
:102C50000122314605F1810002F014FC761C0122AC
:102C6000314605F1880002F00DFC761C0222314647
:102C700005F18A0002F006FC70BD000010B586B0B8
:102C8000044618216846FDF7B4FA18216846FDF796
:102C9000B0FA6A4610A12046FDF7D8FA684601F05E
:102CA000E5FF11A16846FDF7C2FA70B9772002F07E
:102CB00039FD0E494FF47B00FFF793FF204602F0E9
:102CC000B7F90BA002F0B4F902E00BA002F0B0F9E2
:102CD000002006B010BD0000252A5B5E5F5D5F2509
:102CE0005B5E27275D000000616C6C00180000200F
:102CF0005F4F4B3E000000003C45523E000000008C
:102D00002DE9F0412DED068BBEB007464FF00008CF
:102D1000302132A8FDF76DFA00203190302132A821
:102D2000FDF767FA32AAFEA13846FDF78FFA32A8FE
:102D300001F09CFFFCA132A8FDF779FA00287DD1B3
:102D4000302132A8FDF755FA32AAF8A13846FDF72E
:102D50007DFA32A801F08AFFF7A132A8FDF767FAE1
:102D600008B900F0A7FEF5A132A8FDF760FA28B96E
:102D7000F34800F0A9FC4FF00108F2E2F1A132A8FB
:102D8000FDF755FA70BB07A94FF47C00FFF726F951
:102D9000302132A8FDF72DFA32AAEBA13846FDF713
:102DA00055FA32A8FDF73CFA30903098002818DD2B
:102DB0003098182815DA182232A92AA8FDF700FA47
:102DC00007A94FF47C00FFF70CFF182232A9E24854
:102DD000FDF7F6F907A94FF47B00FFF702FF4FF06C
:102DE0000208BEE2DDA132A8FDF721FA38BB07A92F
:102DF0004FF47C00FFF7F2F8302132A8FDF7F9F923
:102E000032AAD8A13846FDF721FA32A8FDF708FA10
:102E10003090309800281DDD309880281ADA802202
:102E200032A90DF11D00FDF7CBF907A94FF47C0085
:102E3000FFF7D7FE802232A9C74801E09FE20AE0EF
:102E40008B38FDF7BDF907A94FF47B00FFF7C9FEEA
:102E50004FF0030885E2C8A132A8FDF7E8F988BB66
:102E600007A94FF47C00FFF7B9F8302132A8FDF72D
:102E7000C0F932AAB4A13846FDF7E8F932A8FDF747
:102E8000C7FC309032A8FDF7CBF9D0B130980028BC
:102E900017DD3098FF2814DA3098C0B28DF89D0005
:102EA00007A94FF47C00FFF79CFEAB498C393098A2
:102EB00081F8810007A94FF47B00FFF792FE4FF0E5
:102EC00004084EE2FFE7ADA132A8FDF7B0F988BBD8
:102ED00007A94FF47C00FFF781F8302132A8FDF7F5
:102EE00088F932AA98A13846FDF7B0F932A8FDF763
:102EF0008FFC309032A8FDF793F9D0B130980028BC
:102F000017DD3098162814DA3098C0B28DF89E007C
:102F100007A94FF47C00FFF764FE8F498C39309885
:102F200081F8820007A94FF47B00FFF75AFE4FF0AB
:102F3000050816E2FFE793A132A8FDF778F900280B
:102F400044D104A94FF47C00FFF748F82DA82EAB1C
:102F50002FAA8DA100903846FDF778F92F98002808
:102F600033DD2F98052830DC2E9800282DDD2E9893
:102F700010282ADC2D98002827DD2D98B0F5C87F71
:102F800023DC2F98401CC0B28DF893002E98C0B25D
:102F90008DF894002D9880B2ADF8960004A94FF4F6
:102FA0007C00FFF71EFE2F98401C6B498C3981F87E
:102FB00083002E9881F884002D98A1F886004FF4A4
:102FC0007B00FFF70EFE4FF00608CAE174A132A89D
:102FD000FDF72DF910BB07A94FF47C00FEF7FEFFAB
:102FE00030AA70A13846FDF731F93098002814DD79
:102FF000309880B2ADF8A60007A94FF47C00FFF727
:10300000F0FD55498C393098A1F88A0007A94FF492
:103010007B00FFF7E6FD4FF00F08A2E165A132A8A3
:10302000FDF705F9002879D12D902E902F90299049
:103030002A902AA829A92BAB2CAACDE900105FA1C0
:103040003846FDF703F92C98002868DD69464FF4EF
:103050007C00FEF7C3FF01208DF8880069464FF41D
:103060007C00FFF7BEFD4FF47E0002F0ABF99DED52
:103070002A0A10EE101A0846FDF7A4FD41EC1A0BBF
:103080009FED540B53EC102BFDF776FC41EC190B24
:103090009FED520B53EC102BFDF7E0FC41EC180BAD
:1030A000FDF758FD05460020319018E0319800EBFF
:1030B00080004FF47A0202EB40010A222DA802F0B0
:1030C000B5F9319800EB80004FF47E0202EB40012D
:1030D0000A222DA802F0D6F93198401C319031987F
:1030E000B0F5CB7FE2DB4FF47A0002F06BF9002001
:1030F0003190AEE000202D902E902F902C98401E05
:10310000319988426ED1280A8DF8B400E8B28DF862
:10311000B5002B98000A8DF8B60064E0A2E0A0E0AC
:10312000252A73202573000077000000252A7320CC
:10313000252A732025730000726573006C730000EC
:10314000BC00002076657200252A7320252A732092
:10315000252A732025730000A4000020696E666F85
:1031600000000000252A7320252A7320252A7320B9
:10317000255B5E27275D000069640000626175645D
:10318000000000006D617800252A7320252A732035
:10319000252A732025642025642025640000000072
:1031A000776C0000252A7320252A7320252A732096
:1031B00025640000666D647000000000252A7320FD
:1031C000252A7320252A732025642025642025665E
:1031D0002025660000000000C0FFDF400000000066
:1031E000000024401CE02B98C0B28DF8B70029AC39
:1031F00020788DF8B80060788DF8B900A0788DF847
:10320000BA00E0788DF8BB00319800EB80004FF4F5
:103210007A0202EB40010A222DA802F033F915E0F0
:10322000319800EB80004FF47E0202EB40010A224D
:103230002DA802F0FBF8319800EB80004FF47A02E1
:1032400002EB40010A222DA802F01CF93198401C23
:1032500031903198B0F5CB7FFFF64CAF4FF00708B7
:1032600000BF7EE0B2A132A8FCF7E1FFF0B9302147
:1032700032A8FCF7BEFF32AAAFA13846FCF7E6FF42
:1032800032A8FCF7CDFF00286BD032A8FDF7C0FABA
:10329000002804DD4FF40050AE49086103E04FF40C
:1032A0000050AC4948614FF008085AE0AAA132A882
:1032B000FCF7BDFF98BB2EAB31AAA8A13846FCF79E
:1032C000C5FF3198002829DD1FED3C0B53EC102B76
:1032D0009DED2E0B51EC100BFDF788FC1ED81FED59
:1032E000430B53EC102B9DED2E0B51EC100BFDF707
:1032F00043FB41EC190B1FED470B53EC102BFDF773
:10330000ADFB41EC180BFDF744FC80B22D903198D9
:10331000C1B22DA8FEF79EFB4FF0090821E0FFE7A0
:1033200093A132A8FCF783FF30B9772002F0FAF9B5
:10333000B8B94FF00A0814E08EA132A8FCF777FF65
:1033400030B9632002F0EEF958B94FF00B0808E0ED
:1033500089A132A8FCF76BFF18B902F00BF84FF007
:103360000C08B8F1000F06DD384601F061FE83A0BD
:1033700001F05EFED6E083A001F05AFED2E083A108
:1033800032A8FCF754FF00287ED1302132A8FCF788
:1033900030FF32AAAFF26C213846FCF757FF32A853
:1033A00001F064FCAFF2302132A8FCF740FF30B9E5
:1033B000774890F8811077A002F088F9B2E0AFF278
:1033C000442132A8FCF733FF50B9714991F88200CB
:1033D000FEF77AFB0446214671A002F077F9A1E0DE
:1033E00072A132A8FCF723FF78B9724890ED030A66
:1033F00010EE101A0846FDF7E5FB41EC180B53ECF4
:10340000182B6DA002F062F98CE0AFF26C2132A8AB
:10341000FCF70DFF50B907A94FF47C00FEF7DEFD65
:10342000BDF8A61068A002F051F97BE0AFF27C2154
:1034300032A8FCF7FCFE40BB00202D902E902F9070
:1034400031AAAFF2A0213846FCF700FF31980028DE
:103450005DDD00202D902E902F903198401E00EBC6
:1034600080004FF47A0202EB40010A222DA801F0FD
:10347000DDFF9DF8B5009DF8B41040EA012000EE94
:10348000100AB8EEC00A01E049E044E010EE106A0C
:103490009DF8B7009DF8B61040EA01252CAC9DF8C8
:1034A000B80020709DF8B90060709DF8BA00A07057
:1034B0009DF8BB00E0703046FDF784FB41EC1A0B31
:1034C0001FEDBA0B53EC102BFDF756FA41EC190B1C
:1034D0001FEDC00B53EC102BFDF7C0FA41EC180B9D
:1034E000FDF7B4FB06463046FDF76CFB41EC180BCC
:1034F0002C98FDF767FB41EC190B8DED028B8DEDE0
:10350000009B2A4633A0319902F0E0F802E01DA0AA
:1035100001F08EFD06E01BA001F08AFD02E019A07B
:1035200001F086FD00203EB0BDEC068BBDE8F081C9
:103530006461637000000000252A7320252A73202F
:10354000252A7320255B303132333435363738390C
:103550005D0000000010014073766F00252A732083
:10356000252A7320252A7320256420256C660000F7
:10357000737300006373000063660000204F4B3ECE
:10358000000000003C45523E0000000072000000B8
:10359000180000203C49443A2025643E0000000009
:1035A0003C626175643A2025643E000074656D706C
:1035B00000000000100200203C74656D703A202568
:1035C000302E32663E0000003C574C3A2025643EC7
:1035D000000000003C43503A25643B20574C3A25FC
:1035E000643B2044423A25302E33663B20563A2530
:1035F000302E33663E00000010B5164800780628CD
:1036000025D2DFE800F003090E13191F4FF48041A3
:10361000114801F044FB1AE04021104801F03FFB43
:1036200015E010210D4801F03AFB10E04FF4004185
:103630000A4801F034FB0AE04FF40051074801F05A
:103640002EFB04E00221054801F029FB00BF00BF6A
:1036500010BD00000800002000100140000C0140D7
:1036600010B516480078062825D2DFE800F00309D7
:103670000E13191F4FF40041114801F010FB1AE01E
:103680002021104801F00BFB15E008210D4801F046
:1036900006FB10E04FF480410A4801F000FB0AE00D
:1036A0004FF48051074801F0FAFA04E0012105487F
:1036B00001F0F5FA00BF00BF10BD000008000020B7
:1036C00000100140000C0140FEB5054600200090AE
:1036D000019002900026287A00286FDD687A002881
:1036E000FBDD287A401E0604687A401E4FF48051A4
:1036F00011FB00664FF47E0001F064FE002413E02D
:1037000004EB840006EB40010A22684601F08EFEBD
:1037100004EB84004FF47E0202EB40010A2268466B
:1037200001F0B0FE601C84B2B4F5CB7FE8DB30461C
:1037300001F048FE002413E004EB84004FF47E0205
:1037400002EB40010A22684601F070FE04EB84009F
:1037500006EB40010A22684601F094FE601C84B228
:103760006889A042E8DC002000900190029028883F
:1037700000128DF8000028788DF80100688800128A
:103780008DF80200A8788DF803002F1D38788DF889
:10379000040078788DF80500B8788DF80600F87880
:1037A0008DF80700688900EB800006EB40010A22D3
:1037B000684601F067FE601C84B214E016E004EB7A
:1037C00084004FF47E0202EB40010A22684601F0B9
:1037D0002DFE04EB840006EB40010A22684601F04E
:1037E00051FE601C84B2B4F5CB7FE8DB0020FEBD47
:1037F00070B5042002F070F9134800684FF47A7233
:10380000B0FBF2F1481EB0F1807F00D31BE0481EF0
:103810004FF0E022506150170F22002804DB1307FD
:103820001C0E0A4B1C5406E013071D0E084B00F03B
:103830000F04241F1D5500BF00204FF0E0229061AF
:103840000720106100BF70BD1000002000E400E000
:1038500018ED00E013480068B0F88400002808DD87
:1038600010480068B0F88400401E0E490968A1F8AD
:1038700084000D480068B0F88400002808DD0A487C
:103880000068B0F88400401E07490968A1F8840068
:1038900006484088002804DD04484088401E03494B
:1038A0004880704700000020040000201002002023
:1038B0001848006840F4700016490860164800680F
:1038C00020F00100401C1449086000BF1248006845
:1038D000C0F340000028F9D00F48406820F00300F2
:1038E0000D49486000BF0C484068C0F381000028C3
:1038F000F9D10948006809490840074908600020D3
:10390000486008634FF41F008860C803014980398C
:103910000860704788ED00E000100240FFFFF2FEF3
:103920000446204601F084FB03A001F081FB1E2029
:1039300001F012F900F0BEF85F4F4B3E00000000AE
:1039400010B52021044802F04BF918B1202102489B
:1039500002F03DF910BD0000004C004010B52021E0
:103960002C4802F03DF9002852D02A48001D00687A
:10397000C4B24FF4FA5028490968A1F884003E2CDB
:1039800005D101202449096881F882003BE00D2C13
:1039900001D00A2C05D102201F49096881F8820054
:1039A00031E0082C18D11C48006890F881000028EC
:1039B00029DD1948006890F88100401E1649096801
:1039C00081F8810000211448006890F88120124895
:1039D0000068401C815416E00F48006890F8810090
:1039E000802810DA0C48006890F881100A480068B6
:1039F00090F88100401C084A126882F8810006484D
:103A00000068401C44542021024802F0E0F800BF46
:103A100010BD0000003801400000002010B520213A
:103A2000044802F0DDF818B12021024802F0CFF876
:103A300010BD00000044004010B52021044802F0F1
:103A4000CFF818B12021024802F0C1F810BD0000E3
:103A50000048004000BFFEE70A4800680A49884263
:103A600009D90A48006880F0010008490860002070
:103A70000449086004E003480068401C01490860EC
:103A8000704700000C000020400D03000C080140AE
:103A900037B514460846064B6A46214600F026F91B
:103AA00004466946002000F0A4FC20463EBD00000C
:103AB000F3430008BFF34F8F0648006800F4E0604E
:103AC00005490843001D03490860BFF34F8F00BF3D
:103AD00000BFFDE70CED00E00000FA05004870476C
:103AE000140000200000000030B583B0044600F050
:103AF00017F89FED090B05468DED000B00222146BE
:103B00006846FDF794F9284600F020F89DED000B7B
:103B100003B030BD00000000000000000000000005
:103B200001480068704700001400002002E008C847
:103B3000121F08C1002AFAD170477047002001E027
:103B400001C1121F002AFBD1704700000149086023
:103B500070470000140000202DE9FF5F82B00021B3
:103B6000DDE90430020DDDF840B0034318D044F61F
:103B70001050A2F2FF3242431514119801281FD0B1
:103B8000A5EB0B00401C5FEA000A4FF000064E4F09
:103B9000DFF83891B046504615D5CAF1000413E05D
:103BA000119801244AA3012801D16FEA0B01029860
:103BB000119AC0E90031C0E9024206B0BDE8F09FA9
:103BC000CBF10000DFE704460021404A491842EBF0
:103BD0000450CDE9001012E0E00707D032463B4622
:103BE00040464946FCF7C8FE8046894632463B4679
:103BF00010461946FCF7C0FE06460F466410002C1E
:103C0000EAD1DDE90401DDE90023BAF1000F06DAAB
:103C1000FCF7B2FE42464B46FCF7AEFE05E0FCF771
:103C20001DFF42464B46FCF719FF04460E46002294
:103C3000284BFCF7F3FF03D84FF0FF30014607E0B5
:103C40000022254B20463146FCF7EFFDFDF7FAF93F
:103C5000102409E0002C0ADB0A220023FDF728F8D3
:103C6000039B30321A55641E50EA0102F2D1641CE3
:103C7000039AC4F111031444119A012A03D00122BA
:103C800008430DD10AE0084304D000204FF0110B87
:103C9000119072E7A3EB0B056D1E0DE05B4504DD93
:103CA0004FF0000205F1010504E003DA4FF00002D5
:103CB000A5F10105002AECD002981199C0E9023162
:103CC000C0E9004579E70000000014400000F03F23
:103CD000300000000000F0430000E03F30380A28C8
:103CE00001D2012070470020704700002DE9FF4FEE
:103CF00095B09A46884606460025EEE1252877D1FC
:103D000000242746F94A0121039400E0044316F8F1
:103D1000013F203B01FA03F01042F7D130782A2806
:103D200011D06FF02F033078A0F13002092A16D895
:103D3000039A44F0020402EB820203EB42021044B5
:103D4000761C0390EFE758F8042B0392002A03DA5D
:103D5000504244F40054039044F00204761C30783E
:103D60002E2816D116F8010F44F004042A280DD08D
:103D70006FF02F023078A0F13003092B09D807EB40
:103D8000870302EB4303C718761CF3E758F8047B5C
:103D9000761C30786C280FD006DC4C2817D06828A9
:103DA0000DD06A2814D104E0742810D07A280FD1DD
:103DB0000DE044F400140AE044F4801401E044F4FB
:103DC00040147278824202D104F58014761C761C6D
:103DD000307866280BD013DC582877D009DC00280F
:103DE00075D04528F6D04628F4D047281AD193E15B
:103DF00018E0632835D0642879D0652812D18BE18A
:103E0000702873D008DC6728F1D069286FD06E283D
:103E10000DD06F2806D1ACE073282CD0752874D053
:103E2000782853D05246179990476D1C54E1C4F33B
:103E30000250022809D003280DD0D8F80010042819
:103E40000DD00D6008F1040846E1D8F80010EA171B
:103E5000C1E90052F6E7D8F800100D80F2E70D70C6
:103E6000F0E718F8041B8DF8001000208DF8010011
:103E7000EB46012003E058F804BB4FF0FF30610728
:103E80004FF0000102D40DE009F101018946B94269
:103E90000FDA8145F8DB1BF809100029F4D108E09E
:103EA00009F1010189468142FADB1BF8091000295A
:103EB000F6D103985346A0EB090721463846179AD6
:103EC00000F080FA284400EB090507E044E008E12F
:103ED0000DE01BF8010B524617999047B9F1010903
:103EE000F7D2534621463846179AF2E039E00A21C4
:103EF000C4F302524FF0000B0091022A06D058F88A
:103F0000040BC117032A09D00AE023E008F10700D7
:103F100020F00702F2E80201904605E000B2C11766
:103F2000042A01D140B2C117002906DA0A4600214D
:103F3000404261EB02012D2202E0220504D52B2232
:103F40008DF80420012203E0E20701D02022F7E7E8
:103F5000914657E00A2100E010214FF0000B00913C
:103F60000BE010214FF0000B44F0040408270091EF
:103F700003E008204FF0000B0090C4F30252022A25
:103F800005D058F8040B0021032A08D008E008F1F6
:103F9000070020F00702F2E80201904603E080B239
:103FA000042A00D1C0B24FF0000922072AD5327886
:103FB000702A07D0DDF800C08CF0100C5CEA0B0C06
:103FC00005D00EE040228DF80420012208E050EADE
:103FD000010306D030238DF804308DF8052002222D
:103FE0009146009B83F0080353EA0B030AD150EA81
:103FF000010201D1620705D530228DF804204FF06F
:1040000001097F1E3278582A04D039A20C920CAADA
:1040100002920BE03BA2F9E75B46009AFCF748FEF0
:104020000C9B9B5C029A521E0292137050EA010292
:10403000F2D1029804A9081A00F1200B600702D5FA
:1040400024F4803400E001275F4502DDA7EB0B007C
:1040500000E0002000EB0B01009003984944401A57
:104060000390E00306D453462146179A039800F0C4
:10407000A9F90544002706E001A85246C05D17993A
:1040800090476D1C7F1C4F45F6DBE0030CD5534673
:104090002146179A039800F095F9054404E0302072
:1040A0005246179990476D1C0099481E00900029B0
:1040B000F5DC08E00298029952460078491C02910A
:1040C000179990476D1CBBF10001ABF1010BF1DCBE
:1040D0005BE100F065F90544761C307800287FF438
:1040E0000DAE19B02846BDE8F08F00000928010088
:1040F000303132333435363738396162636465665E
:10410000000000003031323334353637383941421F
:104110004344454600000000600700D4062708F12C
:10412000070020F00700F0E80223804603F0004C6F
:104130005FEA0C0001D097A009E0200501D596A008
:1041400005E0E00701D095A001E0AFF24C0013902C
:10415000307823F0004365280CD006DC452809D0D0
:1041600046281DD047287FD13BE0662818D0672815
:104170007AD136E00021112F01DB112000E0781CFC
:10418000CDE9000104A90CA8FFF7E6FCDDE90D016B
:104190000C9A4FF0000B07F10109109200914EE0CC
:1041A0004FF000400097CDE9011004A90CA8FFF7DB
:1041B000D3FCDDE90D020C9B0F994FF0000B9146EB
:1041C0001093009211B9791C00EB0109B7EB0900BB
:1041D00003D4C0F1FF3B07F10109A9EB07000190EF
:1041E00042E0012F00DA01270021112F01DD11200B
:1041F00000E03846CDE9000104A90CA8FFF7ACFCAB
:10420000DDE90D010C9A00914FF0000BB9461092B8
:1042100021070FD4009A4A4503DA914601E0A9F13B
:104220000109B9F1010F05DD109AA9F10101515CF5
:104230003029F4D0B84202DA10F1040F03DA012178
:10424000CDE9011010E0002803DC8344A9EB000154
:1042500002E0411C494500DD8946A0EB0B00401CF3
:1042600001904FF000400290200705D40198484586
:1042700002DB4FF0FF30019000208DF84B000298D8
:104280000DF14B07B0F1004F25D002200C902B20F0
:104290000D90029800280CDA404202902D200D90DB
:1042A00007E00A210298FCF7EDFC3031029007F894
:1042B000011D0C99481E0C900029F2DC0298002880
:1042C000EFD1791E0D980870307800F0200040F092
:1042D000450007F8020D11A8C01BC01D02901398DD
:1042E000007800B1012000EB0901019801EBE071B9
:1042F000029801440398401A401E0390E00306D43C
:1043000053462146179A039800F05CF80544139829
:10431000007818B15246179990476D1CE00323D5D9
:1043200053462146179A039800F04CF805441BE0C9
:10433000BBF1000F07DB0098584504DD1098179972
:1043400010F80B0001E01799302052469047019871
:104350000BF1010B401E05F10105019004D12E2047
:104360005246179990476D1CB9F10001A9F1010956
:10437000DEDC05E017F8010B5246179990476D1CDB
:104380000299481E02900029F4DC53462146179AF0
:1043900003989EE62D0000002B0000002000000086
:1043A0002DE9F041044600251E461746880404D432
:1043B00005E039462020B0476D1C641EF9D528461B
:1043C000BDE8F0812DE9F041044600251E469046E7
:1043D000C80301D5302700E02027880404D505E074
:1043E00041463846B0476D1C641EF9D52846BDE8E5
:1043F000F0810A68531C0B60107070470B7842689C
:1044000063F3082242604B78826863F34102826062
:104410008B78826863F3CB228260CA78521EC36AAB
:1044200062F31753C36270470021017041708170BD
:104430000121C1707047816821F008010831816055
:10444000704701468868C0F3C00008B1012070477A
:104450000020FCE7816821F00401091D816070479C
:1044600001468868C0F3800008B101207047002031
:10447000FCE700000349096860F31341014A116039
:104480007047000004240140826861F300028260EA
:1044900070470246002013680B4003B900E001207A
:1044A000704710B5122964D2DFE801F0090E131825
:1044B0001D22272C31363B40454A4F54595E046932
:1044C00063F30204046155E0046963F3C504046105
:1044D00050E0046963F3881404614BE0046963F3FA
:1044E0004B24046146E0046963F30E34046141E047
:1044F000046963F3D13404613CE0046963F39444D8
:10450000046137E0046963F35754046132E00469DD
:1045100063F31A6404612DE0046963F3DD640461EC
:1045200028E0C46863F30204C46023E0C46863F352
:10453000C504C4601EE0C46863F38814C46019E055
:10454000C46863F34B24C46014E0C46863F30E349E
:10455000C4600FE0C46863F3D134C4600AE0C46887
:1045600063F39444C46005E0C46863F35754C460C3
:1045700000E000BF00BF112A5AD2DFE802F059095B
:104580000E13181D22272C31363B40454A4F54004C
:10459000446B61F3040444634BE0446B61F34914DE
:1045A000446346E0446B61F38E24446341E0446B12
:1045B00061F3D33444633CE0446B61F318544463C7
:1045C00037E0446B61F35D64446332E0046B61F394
:1045D000040404632DE0046B61F34914046328E0D0
:1045E000046B61F38E24046323E0046B61F3D33422
:1045F00004631EE0046B61F31854046319E0046B58
:1046000061F35D64046314E0C46A61F30404C4628A
:104610000FE0C46A61F34914C4620AE0C46A61F33A
:104620008E24C46205E0C46A61F3D334C46200E03E
:1046300000BF00BF10BD0146C86C80B2704707299B
:104640000ADD836823F0007303F1007383608368DD
:1046500061F35343836007E0836823F00073836052
:10466000836861F353438360836862F31453836008
:104670007047826861F396528260704730B5AFB080
:1046800000202E904FF40050504908618621504878
:104690000068FBF7AEFD4FF4967000F05DFA002560
:1046A000002415E0601CC1B20A20FDF72BF9284454
:1046B00085B20A2000F050FA601CC1B22EA8FDF7A6
:1046C000C9F9284485B20A2000F046FA601CC4B239
:1046D000404890F88300A042E4DC3E4890F888000F
:1046E000012818D1722001F01DF800240DE0621C91
:1046F000D1B204EB4402384B03EB8200FDF7AAF978
:104700000A2000F029FA601CC4B2324890F88300F5
:10471000A042ECDC54E005A94FF47C00FDF75EFC00
:104720009DF89C00002832DD002002900390049048
:10473000002426E0002002900390049004EB840003
:104740004FF47A0202EB40010A2202A800F06EFE4A
:104750009DF809009DF8081040EA01200190601CB6
:10476000C1B201A8FDF776F90A2000F0F5F9BDF80D
:104770009E0004EB4401184A02EB81014880601C52
:10478000C4B2144890F88300A042D3DC17E00024A0
:1047900010E004EB4400104901EB800000210160AF
:1047A00041608160601C04EB44010B4A02EB810113
:1047B0000872C4B2074890F88300A042E9DC00BF49
:1047C00006A000F035FC2FB030BD00000010014005
:1047D0000000002018000020C80000203C496E693D
:1047E0007469616C204F4B3E000000000649496827
:1047F00060F38F31044A516082080349496862F3CB
:104800001C71014A51607047001002400349496819
:1048100060F30711014A5160704700000010024028
:104820000349496860F30A21014A5160704700005A
:10483000001002400349496860F3CD21014A5160EC
:104840007047000000100240012807D10749496D58
:1048500021F030013031054A516505E00349496DC9
:1048600021F03001014A51657047000000100240FC
:10487000052827D2DFE800F0030A11181F00134AA9
:10488000126861F30002114B1A601CE00F4A1268B3
:1048900061F310420D4B1A6015E00C4A126861F387
:1048A00018620A4B1A600EE0084A126A61F30002AD
:1048B000064B1A6207E0054A526A61F30002034B95
:1048C0005A6200E000BF00BF7047000000100240C5
:1048D0002DE9F041014600270022002590460023E3
:1048E000002400F031F9064626B1012E12D0022E26
:1048F00043D112E03948406DC0F3402038B1374809
:10490000006BC0F3406010B13548086001E03548E5
:10491000086035E03348086032E030484068C0F352
:1049200000482E484068C0F383422C484068C0F3DA
:1049300041750DB90F2A03D12801401C024400E043
:10494000921CB8F1000F03D127485043086013E0D0
:1049500022484068C0F3404058B12048406DC0F341
:104960000137B81CDFF87CC0BCFBF0F05043086096
:1049700002E01C485043086002E01A48086000BF8B
:1049800000BF16484068C0F303131848C45C0868A9
:10499000E040486011484068C0F302231448C45CFA
:1049A0004868E040C8600D484068C0F3C223114821
:1049B000C45C4868E040886008484068C0F3007301
:1049C00006484068C0F3813040EA83030A48C45C6B
:1049D0008868B0FBF4F00861BDE8F0810010024087
:1049E000006CDC0200127A0000093D00585D0008EE
:1049F000685D0008705D0008785D000810B501462C
:104A00000020094B03EB1142126801F01F0401233F
:104A1000A3401A4001F01F040123A3409A4200D092
:104A200000E0012010BD00000010024010B5012977
:104A30000DD10E4B03EB1042126800F01F0401234E
:104A4000A3401A43094C04EB10431A600CE0074BD7
:104A500003EB1042126800F01F040123A3409A43A5
:104A6000024C04EB10431A6010BD0000001002401D
:104A700010B530B9184B5B6823F48033164C636073
:104A800017E0154B5B6823F4803303F58033124C39
:104A90006360012805D123465B6823F4003363601B
:104AA00007E00D4B5B6823F4003303F500330A4C39
:104AB0006360094B5B6861F39543074C63600C09C5
:104AC000054B5B6864F35E73034C636023465B686D
:104AD00062F3DF73636010BD00100240134800688A
:104AE00020F00100401C1149086000BF0F48006819
:104AF000C0F340000028F9D00C48406820F00300C3
:104B00000A49486000BF09484068C0F38100002896
:104B1000F9D10648006806490840044908600020A9
:104B2000486008634FF41F0088607047001002401F
:104B3000FFFFF2FE0349496860F30101014A516039
:104B4000704700000010024002484068C0F3810036
:104B5000704700000010024007E04BF6803100BFB4
:104B60000A1EA1F1010399B2FAD1021EA0F10103BC
:104B700098B2F2D1704706E02D2100BF0A1EA1F1C4
:104B80000103D9B2FAD1021EA0F10100F4D170479D
:104B900010B500F06FFD01224FF47C012B4800F0AE
:104BA00045FC2A480078532839D0532027490870FB
:104BB000002081F88100092081F88200052081F819
:104BC0008300102081F884004FF4C870A1F886009B
:104BD000002081F8880040F20E60A1F88A00802150
:104BE0001A48401CFBF705FB1848401C18A10A682E
:104BF00002608988818018218B30FBF7FAFA122233
:104C000015A112488C30FBF7DBFA10494FF47C00F9
:104C1000FDF7E7FF0D494FF47B00FDF7E2FF0B497D
:104C20004FF47B00FDF7DAF9084890F8820018B9D4
:104C30000920064981F88200044890F88800FF287E
:104C400003DB0020014981F8880010BD1800002016
:104C5000564F415F350000005043423A4A322D31F1
:104C60002C5052473A5636352E33000070B5054663
:104C70002846FBF7D5FAC6B200240AE0285D412891
:104C800005DB285D5A2802DC285D20302855601C91
:104C9000C4B2B442F2DB002070BD416170470161D3
:104CA00070474FF6FF71016000218171017104218D
:104CB00041710121C1717047F0B50A461588ABB248
:104CC0009579032D01D100241AE0957965B95579BC
:104CD00005F00F045579182D01D1036110E05579C5
:104CE000282D0DD143610BE0957905F00805167963
:104CF00006F004063543D67906F0030645EA0604B5
:104D0000DDB2A5B1002110E001258D401D405DB14F
:104D100005688F000F26BE40B543056005688E000C
:104D200004FA06F635430560491C0829ECD3FF2B2D
:104D300015DD1B12002110E001258D401D405DB1E5
:104D400045688F000F26BE40B543456045688E001C
:104D500004FA06F635434560491C0829ECD3F0BD3A
:104D60000246002093680B408B4200D000E00120F7
:104D700070470000F0B50C46104F07EB1062C0F30F
:104D80000741C0F30725C6B2C5F12007A7EB010C08
:104D90004FF0FF3707FA0CF3C5F120077F1AFB40ED
:104DA000CB408B4017689F4317602CB106FA01FC7B
:104DB000176847EA0C071760F0BD000000000140CB
:104DC00070B50546002409E004EB4401054A02EBF6
:104DD0008101886800F02CF9601CC4B20C2CF3DB54
:104DE000002070BDC45C00081CB501213E48FFF7DF
:104DF0001DFE01213C48401CFFF718FE01213A48E6
:104E0000801CFFF713FE01213748C01CFFF70EFE80
:104E100001214FF4C010FFF709FE41F64E1000903B
:104E200000208DF8060018208DF8050000208DF870
:104E3000040001208DF8070069462C48FFF73CFF6D
:104E4000B120009010208DF8060004208DF8050098
:104E500000208DF8040001208DF8070069462348E2
:104E6000FFF72AFF45F62D60009000208DF8060020
:104E700018208DF8050000208DF8040001208DF821
:104E8000070069461A48FFF717FF4AF2D210009050
:104E900010208DF8060004208DF8050000208DF804
:104EA000040001208DF8070069461148FFF704FF50
:104EB00001211048FFF75EFF4FF4005000901020D2
:104EC0008DF8060004208DF8050000208DF8040000
:104ED00001208DF8070069460748FFF7EDFE4FF403
:104EE0000050054948611CBD02001800000801403F
:104EF000000C0140020310300010014000F03AFDA8
:104F0000FEF776FCFFF770FF00F0D8FCFDF7FEFD22
:104F1000FFF73EFE094991F88200FCF7D5FD0446F3
:104F200000F0EEFDFCF72AFEFFF7A8FB05E000F01D
:104F3000E1F8FCF7C1FAFEF78FFDF8E71800002052
:104F40002DE9F0470B4614464FF0000C00BF2C4AE9
:104F50001268C2F302211D4626460A46C2F107091D
:104F6000B9F1040F02D94FF0040901E0C2F10709B9
:104F7000C84602F10409B9F1070F02D24FF0000947
:104F800001E0A2F103094F464FF0010909FA08F9BF
:104F9000A9F1010909EA050909FA07F94FF0010A1F
:104FA0000AFA07FAAAF1010A0AEA060A49EA0A090C
:104FB000CC4601466246002904DB15072E0E114D32
:104FC0006E5407E015072F0E0D4D0C3501F00F063E
:104FD000361FAF5500BF014600290DDB00BF00BFE3
:104FE00001F01F050122AA404D09AD0005F1E025A1
:104FF000C5F8002100BF00BF00BFBDE8F08700007A
:105000000CED00E000E400E000BF00F00702064BFA
:1050100019684FF6FF031940044B0B4343EA022182
:10502000014B196000BF70470CED00E00000FA056D
:1050300070B505462C460BE000BF8021064800F005
:10504000CFFD0028F9D02178034800F0B7FD641C9B
:1050500020780028F0D170BD0038014010B504461A
:1050600000BF8021044800F0BBFD0028F9D0214694
:10507000014800F0A3FD10BD0038014010B5002428
:105080001948007806282BD2DFE800F0030A101632
:105090001D244FF400411548FFF762FE04461FE04F
:1050A00020211348FFF75CFE044619E00821104850
:1050B000FFF756FE044613E04FF480410C48FFF71B
:1050C0004FFE04460CE04FF480510948FFF748FEBC
:1050D000044605E001210648FFF742FE044600BFF2
:1050E00000BF204610BD0000080000200010014055
:1050F000000C0140FEB5FF250020009001900290B9
:105100007F48006890F88100802812DB80217C486D
:105110000068401CFBF76DF800207949096881F8A8
:1051200081007749096881F882007549096881F82A
:105130008300734800680078012825D112E0704987
:10514000096891F883206E49096891F88310491C19
:105150006B4B1B6883F8831069490968491C885C9C
:10516000FFF77CFF6648006890F881006449096891
:1051700091F883108842E2DC6148006890F8820070
:1051800010B160A0FFF754FF5D48006890F88200FE
:1051900000287DDD5A48006890F8810000287EDDF7
:1051A000002600241CE056480068401C005D612871
:1051B00005DB53480068401C005D7A280BDD504831
:1051C0000068401C005D412806DB4D480068401C1B
:1051D000005D5A2800DC09E0701CC6B2601CC4B235
:1051E0004748006890F88100A042DCDC00BF4448DA
:1051F000006890F88100B0422FDD002000900190FF
:105200000290002410E031193D480068401C455CC4
:10521000202D04D05F2D02D00DB13E2D00D105E030
:105220000DF80450601CC4B20A2CECDB00BF6846C9
:10523000FFF71CFDFF2500240CE004EB4400324A7C
:1052400052F820106846FAF7F2FF08B9254603E045
:10525000601CC4B20C2CF0DB00E00C240C2C03DB33
:105260002AA0FFF7E5FE0BE0FF2D09D005EB450076
:10527000254A02EB8000416821480068401C8847AD
:1052800080211F480068401CFAF7B3FF002001E0AE
:1052900012E004E01A49096881F8810002E01DA0CB
:1052A000FFF7C6FE00201649096881F883001449FB
:1052B000096881F8820022E011480068B0F8840093
:1052C00000281CDC0E48006890F881000C49096831
:1052D00091F88210084390B1802109480068401C71
:1052E000FAF787FF00200649096881F88100044920
:1052F000096881F883000249096881F88200FEBDCF
:10530000000000200D0A0000C45C00083C45523E2D
:10531000000000000D0A3C3E0D0A000010B50446D6
:1053200000BF02210A4800F00BF90028F9D02146FD
:10533000074800F003F900BF0121054800F000F91B
:105340000028F9D0024800F0F5F8C0B210BD000006
:10535000003001400021017041708170C170017105
:10536000417181710121C1717047026861F3861238
:105370000260704710B51020114908600620FFF741
:10538000CDFF10200E49091F086000F073F90028B6
:105390000BDB10200A490860C720FFF7BFFF102071
:1053A0000749091F086000F065F9102004490860EA
:1053B0000420FFF7B3FF10200149091F086010BD4A
:1053C0001408014010B50446102017490860062053
:1053D000FFF7A4FF10201449091F086000F04AF9E4
:1053E000002816DB1020104908602020FFF796FFE8
:1053F000C4F30740FFF792FFC4F30720FFF78EFFC7
:10540000E0B2FFF78BFF10200749091F086000F08A
:1054100031F91020044908600420FFF77FFF1020B5
:105420000149091F086010BD140801402DE9F04131
:1054300006460C4617461020114908600B20FFF75E
:105440006DFFC4F30740FFF769FFC4F30720FFF7C0
:1054500065FFE0B2FFF762FF0020FFF75FFF002566
:1054600005E00020FFF75AFF7055681C85B2BD4269
:10547000F7DB10200249091F0860BDE8F081000039
:10548000140801402DE9F04707460C4615464FF039
:10549000000900BF1020264908600620FFF73EFFE4
:1054A00010202349091F086000F0E4F8002831DBD0
:1054B000E0B2C0F58076B54202DDA81B85B201E0FE
:1054C0002E46002510201A4908600220FFF726FF0B
:1054D000C4F30740FFF722FFC4F30720FFF71EFFC6
:1054E000E0B2FFF71BFF4FF000080BE049464A1CF3
:1054F0001FFA82F9785CFFF711FF641C08F10100C4
:105500001FFA80F8B045F1DB10200949091F086037
:1055100000F0B0F8002DBDDC102005490860042023
:10552000FFF7FCFE10200249091F0860BDE8F08764
:10553000140801400146C86880B27047C1607047D6
:105540000246002093680B4003B900E00120704739
:10555000C26922F40062C2610A7862B9026822F468
:1055600000420260026822F480420260026822F473
:105570008062026036E00A78012A0ED1026822F4C5
:1055800000420260026822F480420260026822F453
:10559000806202F58062026024E00A78022A0ED15D
:1055A000026822F4004202F500420260026822F41E
:1055B00080420260026822F48062026012E00A788F
:1055C000032A0FD1026822F4004202F50042026071
:1055D000026822F4804202F580420260026822F4EE
:1055E00080620260CB79026863F3492202604A78E4
:1055F000012A09D1CA79012A06D1026822F48072EF
:1056000002F58072026003E0026822F48072026098
:105610004B78026863F3820202608A78072A0BDD06
:10562000426822F4807202F5807242608A780368D0
:1056300062F3C503036008E0426822F480724260AE
:105640008B78026863F3C5020260CB78026863F36B
:10565000C71202600B79026863F3CB2202604B79B8
:10566000026863F3410202608B79026863F300020F
:105670000260704770B500251020134908600520AE
:10568000FFF74CFE00240DE00020FFF747FE45B277
:1056900005F00100002800DC08E00A20FFF76BFAA3
:1056A000601C84B24CF250308442EDDB00BF10200D
:1056B0000549091F08604CF25030844201DB4FF06D
:1056C000FF35284670BD0000140801400FB430B506
:1056D000A1B0802101A8FAF78CFD25A8009001A8AF
:1056E000009A2499FEF7D4F90020009001A8FAF757
:1056F00097FDC5B200240DE000BF8021084800F0EE
:105700006FFA0028F9D001A8015D054800F056FAAB
:10571000601CC4B2AC42EFDB21B030BC5DF814FBBE
:10572000003801402DE9FE4306464FF000080020F6
:105730000090019002904FF47D07772E4ED13846AD
:10574000FFF740FE00243BE0002000900190029013
:1057500004EB4400574931F8200000128DF8000096
:1057600004EB440011F820008DF8010004EB440024
:1057700001EB8000408800128DF8020004EB440029
:1057800001EB800080788DF8030004EB440001EB0E
:105790008000051D28788DF8040068788DF80500D4
:1057A000A8788DF80600E8788DF8070004EB8400EF
:1057B00007EB40010A226846FFF764FE601C84B2D2
:1057C0003D4890F88300A042BEDC01203A4981F8B0
:1057D00088004FF47B00FDF704FA67E0722E3DD19C
:1057E000002435E0002000900190029004EB84003A
:1057F00007EB40010A226846FFF718FE9DF80100FA
:105800009DF8001040EA012004EB4401294A22F8E7
:1058100021009DF803009DF8021040EA012004EBEE
:10582000440102EB8101488004EB4400114601EB86
:105830008000051D9DF8040028709DF80500687023
:105840009DF80600A8709DF80700E870601C84B2FF
:10585000194890F88300A042C4DC27E0632E23D1CE
:105860003846FFF7AFFD002410E004EB4400114977
:1058700001EB80000021016041608160601C04EB4D
:1058800044010C4A02EB8101087284B20A4890F884
:105890008300A042E9DC0020074981F888004FF42A
:1058A0007B00FDF79EF901E04FF001084FFA88F008
:1058B000BDE8FE83C8000020180000201CB50121AF
:1058C0002948FFF7B3F801212748401CFFF7AEF83D
:1058D00001212548801CFFF7A9F801212248C01C9E
:1058E000FFF7A4F84FF48040009010208DF80600D8
:1058F00018208DF8050000208DF8040001208DF897
:10590000070069461948FFF7D7F94AF2520000909C
:1059100069461748FFF7D0F94FF400400090002087
:105920008DF8060018208DF8050000208DF8040081
:1059300001208DF8070069460C48FFF7BDF945F2D4
:105940002900009000208DF8060018208DF8050031
:1059500000208DF8040001208DF8070069460448F6
:10596000FFF7AAF91CBD000002001800001001405A
:10597000000C014010B5FFF7B1F801210020FEF73F
:1059800077FF00BF0120FFF739F80128FAD1012283
:105990003B210020FFF76CF801210220FEF768FF91
:1059A00000BF1920FFF72AF80128FAD10020FEF7DE
:1059B0002DFF0420FEF73EFF0420FEF731FF0120FB
:1059C000FEF742FF0220FFF7B5F800BFFFF7BCF873
:1059D0000228FBD10020FEF737FF00F001F810BDD0
:1059E0002DE9F0470026002400250027A046A14607
:1059F000FFF7AAF88246BAF1000F06D0BAF1010FFC
:105A000015D0BAF1020F46D115E02D48406DC0F314
:105A1000402040B12A48006BC0F3406018B12948CB
:105A20002949086002E029482749086037E02748EB
:105A30002549086033E022484068C0F30047204809
:105A40004068C0F383441E484068C0F341750DB9F7
:105A50000F2C03D12801401C044400E0A41C27B9EA
:105A60001B4860431849086014E015484068C0F3BB
:105A7000404058B11248406DC0F30136B01C134984
:105A8000B1FBF0F060431049086003E00F48604349
:105A90000D49086003E00D480B49086000BF00BFD6
:105AA00007484068C0F303180A4810F808900648F1
:105AB000006820FA09F004490860BDE8F08700009A
:105AC00000100240006CDC021000002000127A007E
:105AD00000093D00805D0008042808D14FF0E02156
